{
  "address": "0xC9B8A9Fd0bf42CE5F7f2C6a7baFFeEEF50e98eDB",
  "abi": [
    {
      "inputs": [
        {
          "internalType": "address",
          "name": "_multiDex",
          "type": "address"
        },
        {
          "internalType": "address",
          "name": "_tokenA",
          "type": "address"
        },
        {
          "internalType": "address",
          "name": "_tokenB",
          "type": "address"
        }
      ],
      "stateMutability": "nonpayable",
      "type": "constructor"
    },
    {
      "inputs": [],
      "name": "completeFrontRun",
      "outputs": [],
      "stateMutability": "nonpayable",
      "type": "function"
    },
    {
      "inputs": [
        {
          "internalType": "uint256",
          "name": "_amountA",
          "type": "uint256"
        }
      ],
      "name": "manipulatePrice",
      "outputs": [],
      "stateMutability": "nonpayable",
      "type": "function"
    },
    {
      "inputs": [],
      "name": "multiDex",
      "outputs": [
        {
          "internalType": "contract IMultiDEX",
          "name": "",
          "type": "address"
        }
      ],
      "stateMutability": "view",
      "type": "function"
    },
    {
      "inputs": [],
      "name": "tokenA",
      "outputs": [
        {
          "internalType": "contract IERC20",
          "name": "",
          "type": "address"
        }
      ],
      "stateMutability": "view",
      "type": "function"
    },
    {
      "inputs": [],
      "name": "tokenB",
      "outputs": [
        {
          "internalType": "contract IERC20",
          "name": "",
          "type": "address"
        }
      ],
      "stateMutability": "view",
      "type": "function"
    }
  ],
  "transactionHash": "0x903d64067c94ca74a50869a2b552d8d67658dc3fb6b926983f6d6fb72edd8a87",
  "args": [
    "0x1A4ED2C40db8346C438bEcF99aC9d8512988240d",
    "0xDbCae8192036b8e52614899fd176F2804b01278C",
    "0xE38b9b20B5ff326AFA16284cA028cb5627B60722"
  ],
  "numDeployments": 13,
  "solcInputHash": "2cd8a4f954700d33a473d7e84335e86d",
  "bytecode": "0x608060405234801561001057600080fd5b506040516105ff3803806105ff83398101604081905261002f9161008d565b600080546001600160a01b039485166001600160a01b0319918216179091556001805493851693821693909317909255600280549190931691161790556100d0565b80516001600160a01b038116811461008857600080fd5b919050565b6000806000606084860312156100a257600080fd5b6100ab84610071565b92506100b960208501610071565b91506100c760408501610071565b90509250925092565b610520806100df6000396000f3fe608060405234801561001057600080fd5b50600436106100575760003560e01c80630fc63d101461005c57806359b118b01461008b5780635f64b55b146100a05780638fdae009146100b3578063fd12c8e8146100c6575b600080fd5b60015461006f906001600160a01b031681565b6040516001600160a01b03909116815260200160405180910390f35b61009e61009936600461048f565b6100ce565b005b60025461006f906001600160a01b031681565b60005461006f906001600160a01b031681565b61009e610242565b6001546040516323b872dd60e01b8152336004820152306024820152604481018390526001600160a01b03909116906323b872dd906064016020604051808303816000875af1158015610125573d6000803e3d6000fd5b505050506040513d601f19601f8201168201806040525081019061014991906104a8565b5060015460005460405163095ea7b360e01b81526001600160a01b0391821660048201526024810184905291169063095ea7b3906044016020604051808303816000875af115801561019f573d6000803e3d6000fd5b505050506040513d601f19601f820116820180604052508101906101c391906104a8565b5060008054600154600254604051633ee2afc160e01b81526001600160a01b03928316600482015290821660248201526044810185905260648101939093521690633ee2afc190608401600060405180830381600087803b15801561022757600080fd5b505af115801561023b573d6000803e3d6000fd5b5050505050565b6002546040516370a0823160e01b81523060048201526000916001600160a01b0316906370a0823190602401602060405180830381865afa15801561028b573d6000803e3d6000fd5b505050506040513d601f19601f820116820180604052508101906102af91906104d1565b60025460005460405163095ea7b360e01b81526001600160a01b03918216600482015260248101849052929350169063095ea7b3906044016020604051808303816000875af1158015610306573d6000803e3d6000fd5b505050506040513d601f19601f8201168201806040525081019061032a91906104a8565b5060008054600254600154604051633ee2afc160e01b81526001600160a01b03928316600482015290821660248201526044810185905260648101939093521690633ee2afc190608401600060405180830381600087803b15801561038e57600080fd5b505af11580156103a2573d6000803e3d6000fd5b50506001546040516370a0823160e01b81523060048201526001600160a01b03909116925063a9059cbb9150339083906370a0823190602401602060405180830381865afa1580156103f8573d6000803e3d6000fd5b505050506040513d601f19601f8201168201806040525081019061041c91906104d1565b6040516001600160e01b031960e085901b1681526001600160a01b03909216600483015260248201526044016020604051808303816000875af1158015610467573d6000803e3d6000fd5b505050506040513d601f19601f8201168201806040525081019061048b91906104a8565b5050565b6000602082840312156104a157600080fd5b5035919050565b6000602082840312156104ba57600080fd5b815180151581146104ca57600080fd5b9392505050565b6000602082840312156104e357600080fd5b505191905056fea2646970667358221220c9926c2f290ccfb6a0ca75dceebe2d5c84c8701d74b124d918e839b60f38f21064736f6c63430008110033",
  "devdoc": {
    "kind": "dev",
    "methods": {},
    "version": 1
  },
  "userdoc": {
    "kind": "user",
    "methods": {},
    "version": 1
  },
  "storageLayout": {
    "storage": [
      {
        "astId": 95,
        "contract": "contracts/FrontRunner.sol:FrontRunner",
        "label": "multiDex",
        "offset": 0,
        "slot": "0",
        "type": "t_contract(IMultiDEX)92"
      },
      {
        "astId": 98,
        "contract": "contracts/FrontRunner.sol:FrontRunner",
        "label": "tokenA",
        "offset": 0,
        "slot": "1",
        "type": "t_contract(IERC20)77"
      },
      {
        "astId": 101,
        "contract": "contracts/FrontRunner.sol:FrontRunner",
        "label": "tokenB",
        "offset": 0,
        "slot": "2",
        "type": "t_contract(IERC20)77"
      }
    ],
    "types": {
      "t_contract(IERC20)77": {
        "encoding": "inplace",
        "label": "contract IERC20",
        "numberOfBytes": "20"
      },
      "t_contract(IMultiDEX)92": {
        "encoding": "inplace",
        "label": "contract IMultiDEX",
        "numberOfBytes": "20"
      }
    }
  }
}