{
  "address": "0x1A4ED2C40db8346C438bEcF99aC9d8512988240d",
  "abi": [
    {
      "inputs": [],
      "stateMutability": "nonpayable",
      "type": "constructor"
    },
    {
      "anonymous": false,
      "inputs": [
        {
          "indexed": true,
          "internalType": "address",
          "name": "previousOwner",
          "type": "address"
        },
        {
          "indexed": true,
          "internalType": "address",
          "name": "newOwner",
          "type": "address"
        }
      ],
      "name": "OwnershipTransferred",
      "type": "event"
    },
    {
      "inputs": [
        {
          "internalType": "address",
          "name": "_tokenA",
          "type": "address"
        },
        {
          "internalType": "address",
          "name": "_tokenB",
          "type": "address"
        },
        {
          "internalType": "uint256",
          "name": "_amountA",
          "type": "uint256"
        },
        {
          "internalType": "uint256",
          "name": "_amountB",
          "type": "uint256"
        }
      ],
      "name": "addLiquidity",
      "outputs": [],
      "stateMutability": "nonpayable",
      "type": "function"
    },
    {
      "inputs": [
        {
          "internalType": "address",
          "name": "_token",
          "type": "address"
        }
      ],
      "name": "addSupportedToken",
      "outputs": [],
      "stateMutability": "nonpayable",
      "type": "function"
    },
    {
      "inputs": [
        {
          "internalType": "address",
          "name": "tokenIn",
          "type": "address"
        },
        {
          "internalType": "address",
          "name": "tokenOut",
          "type": "address"
        },
        {
          "internalType": "uint256",
          "name": "tokensSold",
          "type": "uint256"
        }
      ],
      "name": "calculateTokenAmount",
      "outputs": [
        {
          "internalType": "uint256",
          "name": "",
          "type": "uint256"
        }
      ],
      "stateMutability": "view",
      "type": "function"
    },
    {
      "inputs": [
        {
          "internalType": "uint256",
          "name": "inputAmount",
          "type": "uint256"
        },
        {
          "internalType": "uint256",
          "name": "inputReserve",
          "type": "uint256"
        },
        {
          "internalType": "uint256",
          "name": "outputReserve",
          "type": "uint256"
        }
      ],
      "name": "getAmountOfTokens",
      "outputs": [
        {
          "internalType": "uint256",
          "name": "",
          "type": "uint256"
        }
      ],
      "stateMutability": "pure",
      "type": "function"
    },
    {
      "inputs": [
        {
          "internalType": "string",
          "name": "_symbol",
          "type": "string"
        }
      ],
      "name": "getTokenPriceWei",
      "outputs": [
        {
          "internalType": "uint256",
          "name": "_price",
          "type": "uint256"
        },
        {
          "internalType": "uint256",
          "name": "_timestamp",
          "type": "uint256"
        },
        {
          "internalType": "uint256",
          "name": "_decimals",
          "type": "uint256"
        }
      ],
      "stateMutability": "view",
      "type": "function"
    },
    {
      "inputs": [
        {
          "internalType": "address",
          "name": "_token",
          "type": "address"
        }
      ],
      "name": "getTokensInContract",
      "outputs": [
        {
          "internalType": "uint256",
          "name": "",
          "type": "uint256"
        }
      ],
      "stateMutability": "view",
      "type": "function"
    },
    {
      "inputs": [],
      "name": "owner",
      "outputs": [
        {
          "internalType": "address",
          "name": "",
          "type": "address"
        }
      ],
      "stateMutability": "view",
      "type": "function"
    },
    {
      "inputs": [
        {
          "internalType": "address",
          "name": "_tokenA",
          "type": "address"
        },
        {
          "internalType": "address",
          "name": "_tokenB",
          "type": "address"
        },
        {
          "internalType": "uint256",
          "name": "_liquidity",
          "type": "uint256"
        }
      ],
      "name": "removeLiquidity",
      "outputs": [],
      "stateMutability": "nonpayable",
      "type": "function"
    },
    {
      "inputs": [],
      "name": "renounceOwnership",
      "outputs": [],
      "stateMutability": "nonpayable",
      "type": "function"
    },
    {
      "inputs": [
        {
          "internalType": "uint256",
          "name": "",
          "type": "uint256"
        }
      ],
      "name": "supportedTokens",
      "outputs": [
        {
          "internalType": "address",
          "name": "",
          "type": "address"
        }
      ],
      "stateMutability": "view",
      "type": "function"
    },
    {
      "inputs": [
        {
          "internalType": "address",
          "name": "_tokenIn",
          "type": "address"
        },
        {
          "internalType": "address",
          "name": "_tokenOut",
          "type": "address"
        },
        {
          "internalType": "uint256",
          "name": "_tokensSold",
          "type": "uint256"
        },
        {
          "internalType": "uint256",
          "name": "_expectedPriceUSD",
          "type": "uint256"
        }
      ],
      "name": "swapTokenToToken",
      "outputs": [],
      "stateMutability": "nonpayable",
      "type": "function"
    },
    {
      "inputs": [
        {
          "internalType": "address",
          "name": "",
          "type": "address"
        }
      ],
      "name": "tokenInfoMap",
      "outputs": [
        {
          "internalType": "address",
          "name": "token",
          "type": "address"
        },
        {
          "internalType": "uint256",
          "name": "liquidity",
          "type": "uint256"
        }
      ],
      "stateMutability": "view",
      "type": "function"
    },
    {
      "inputs": [
        {
          "internalType": "address",
          "name": "newOwner",
          "type": "address"
        }
      ],
      "name": "transferOwnership",
      "outputs": [],
      "stateMutability": "nonpayable",
      "type": "function"
    }
  ],
  "transactionHash": "0x0b08626c27969e1b1d013e6d66e74f53de19e012705ac554db49e7f86d7efe89",
  "args": [],
  "numDeployments": 13,
  "solcInputHash": "2a3603bd4ff6f465642ba11cc0f67779",
  "bytecode": "0x608060405234801561001057600080fd5b5061001a3361001f565b61006f565b600080546001600160a01b038381166001600160a01b0319831681178455604051919092169283917f8be0079c531659141344cd1fd0a4f28419497f9722a3daafe3b4186f6b6457e09190a35050565b61145d8061007e6000396000f3fe608060405234801561001057600080fd5b50600436106100cf5760003560e01c80637386479e1161008c578063c625562611610066578063c6255626146101f5578063cf6c62ea14610208578063d752fab21461021b578063f2fde38b1461022e57600080fd5b80637386479e146101aa5780638da5cb5b146101bd578063bc62b14c146101e257600080fd5b806303357067146100d45780633ee2afc11461010757806369848c2f1461011c5780636d69fcaf1461016e5780636eb0314f14610181578063715018a6146101a2575b600080fd5b6100e76100e2366004610fd0565b610241565b604080519384526020840192909252908201526060015b60405180910390f35b61011a610115366004611096565b61035b565b005b61014f61012a3660046110dc565b600160208190526000918252604090912080549101546001600160a01b039091169082565b604080516001600160a01b0390931683526020830191909152016100fe565b61011a61017c3660046110dc565b6105f1565b61019461018f3660046110dc565b6106e2565b6040519081526020016100fe565b61011a610753565b6101946101b8366004611100565b610767565b6000546001600160a01b03165b6040516001600160a01b0390911681526020016100fe565b6101946101f036600461112c565b6107e7565b6101ca61020336600461116d565b610879565b61011a610216366004611096565b6108a3565b61011a61022936600461112c565b610c47565b61011a61023c3660046110dc565b610e97565b60405163413b07e560e11b815260206004820152600c60248201526b4674736f526567697374727960a01b60448201526000908190819073ad67fe66660fb8dfe9d6b1b4240d8650e30f601990829082906382760fca90606401602060405180830381865afa1580156102b8573d6000803e3d6000fd5b505050506040513d601f19601f820116820180604052508101906102dc9190611186565b60405163534d7ee360e11b81529091506001600160a01b0382169063a69afdc69061030b9089906004016111a3565b606060405180830381865afa158015610328573d6000803e3d6000fd5b505050506040513d601f19601f8201168201806040525081019061034c91906111f1565b91989097509095509350505050565b6001600160a01b03848116600090815260016020526040902054161580159061039d57506001600160a01b038381166000908152600160205260409020541615155b6103c25760405162461bcd60e51b81526004016103b99061121f565b60405180910390fd5b60006103cd856106e2565b905060006103da856106e2565b905060006103e9858484610767565b9050831561050257600080600061041e604051806040016040528060078152602001660e8cae6e88aa8960cb1b815250610241565b91945092509050600061043282600a611347565b61043c9085611369565b9050600088821161046c5788610452838261138b565b61045d90606461139e565b6104679190611369565b61048c565b816104778a8261138b565b61048290606461139e565b61048c9190611369565b90506005808211156104fb5760405162461bcd60e51b815260206004820152603260248201527f5377617047756172642041637469766174656421205072696365206f7574736960448201527132329032bc3832b1ba32b2103930b733b29760711b60648201526084016103b9565b5050505050505b6040516323b872dd60e01b81526001600160a01b038816906323b872dd9061053290339030908a906004016113b5565b6020604051808303816000875af1158015610551573d6000803e3d6000fd5b505050506040513d601f19601f8201168201806040525081019061057591906113d9565b5060405163a9059cbb60e01b8152336004820152602481018290526001600160a01b0387169063a9059cbb906044016020604051808303816000875af11580156105c3573d6000803e3d6000fd5b505050506040513d601f19601f820116820180604052508101906105e791906113d9565b5050505050505050565b6105f9610f10565b6001600160a01b0381811660009081526001602052604090205416156106615760405162461bcd60e51b815260206004820152601760248201527f546f6b656e20616c726561647920737570706f7274656400000000000000000060448201526064016103b9565b6002805460018082019092557f405787fa12a823e0f2b7631cc41b3ba8828b3321ca811111fa75cd3aa3bb5ace0180546001600160a01b03199081166001600160a01b039485169081179092556040805180820182528381526000602080830182815295825286905291909120905181549092169190941617835551910155565b6040516370a0823160e01b81523060048201526000906001600160a01b038316906370a0823190602401602060405180830381865afa158015610729573d6000803e3d6000fd5b505050506040513d601f19601f8201168201806040525081019061074d91906113fb565b92915050565b61075b610f10565b6107656000610f6a565b565b600080831180156107785750600082115b6107b75760405162461bcd60e51b815260206004820152601060248201526f496e76616c696420526573657276657360801b60448201526064016103b9565b60006107c3838661139e565b905060006107d18686611414565b90506107dd8183611369565b9695505050505050565b6001600160a01b038381166000908152600160205260408120549091161580159061082b57506001600160a01b038381166000908152600160205260409020541615155b6108475760405162461bcd60e51b81526004016103b99061121f565b6000610852856106e2565b9050600061085f856106e2565b9050600061086e858484610767565b979650505050505050565b6002818154811061088957600080fd5b6000918252602090912001546001600160a01b0316905081565b6001600160a01b0384811660009081526001602052604090205416158015906108e557506001600160a01b038381166000908152600160205260409020541615155b6109015760405162461bcd60e51b81526004016103b99061121f565b6001600160a01b038085166000908152600160205260408082209286168252812090808061092e896106e2565b9050600061093b896106e2565b9050898983158061094a575082155b15610a42576040516323b872dd60e01b81526001600160a01b038316906323b872dd9061097f90339030908f906004016113b5565b6020604051808303816000875af115801561099e573d6000803e3d6000fd5b505050506040513d601f19601f820116820180604052508101906109c291906113d9565b506040516323b872dd60e01b81526001600160a01b038216906323b872dd906109f390339030908e906004016113b5565b6020604051808303816000875af1158015610a12573d6000803e3d6000fd5b505050506040513d601f19601f82011682018060405250810190610a3691906113d9565b50899550889450610c05565b82610a4d858b61139e565b610a579190611369565b8a10158015610a7a575083610a6c848c61139e565b610a769190611369565b8910155b610aec5760405162461bcd60e51b815260206004820152603e60248201527f416d6f756e74206f6620746f6b656e732073656e74206973206c65737320746860448201527f616e20746865206d696e696d756d20746f6b656e73207265717569726564000060648201526084016103b9565b6040516323b872dd60e01b81526001600160a01b038316906323b872dd90610b1c90339030908f906004016113b5565b6020604051808303816000875af1158015610b3b573d6000803e3d6000fd5b505050506040513d601f19601f82011682018060405250810190610b5f91906113d9565b506040516323b872dd60e01b81526001600160a01b038216906323b872dd90610b9090339030908e906004016113b5565b6020604051808303816000875af1158015610baf573d6000803e3d6000fd5b505050506040513d601f19601f82011682018060405250810190610bd391906113d9565b50838a89600101540281610be957610be9611353565b049550828988600101540281610c0157610c01611353565b0494505b85886001016000828254610c199190611414565b9250508190555084876001016000828254610c349190611414565b9091555050505050505050505050505050565b60008111610ca55760405162461bcd60e51b815260206004820152602560248201527f4c69717569646974792073686f756c642062652067726561746572207468616e604482015264207a65726f60d81b60648201526084016103b9565b6001600160a01b038381166000908152600160205260409020541615801590610ce757506001600160a01b038281166000908152600160205260409020541615155b610d035760405162461bcd60e51b81526004016103b99061121f565b6001600160a01b03808416600090815260016020819052604080832093861683528220838201549181015490928286610d3b8a6106e2565b610d45919061139e565b610d4f9190611369565b905060008287610d5e8a6106e2565b610d68919061139e565b610d729190611369565b905086866001016000828254610d88919061138b565b9250508190555086856001016000828254610da3919061138b565b909155505060405163a9059cbb60e01b8152336004820152602481018390526001600160a01b038a169063a9059cbb906044016020604051808303816000875af1158015610df5573d6000803e3d6000fd5b505050506040513d601f19601f82011682018060405250810190610e1991906113d9565b5060405163a9059cbb60e01b8152336004820152602481018290526001600160a01b0389169063a9059cbb906044016020604051808303816000875af1158015610e67573d6000803e3d6000fd5b505050506040513d601f19601f82011682018060405250810190610e8b91906113d9565b50505050505050505050565b610e9f610f10565b6001600160a01b038116610f045760405162461bcd60e51b815260206004820152602660248201527f4f776e61626c653a206e6577206f776e657220697320746865207a65726f206160448201526564647265737360d01b60648201526084016103b9565b610f0d81610f6a565b50565b6000546001600160a01b031633146107655760405162461bcd60e51b815260206004820181905260248201527f4f776e61626c653a2063616c6c6572206973206e6f7420746865206f776e657260448201526064016103b9565b600080546001600160a01b038381166001600160a01b0319831681178455604051919092169283917f8be0079c531659141344cd1fd0a4f28419497f9722a3daafe3b4186f6b6457e09190a35050565b634e487b7160e01b600052604160045260246000fd5b600060208284031215610fe257600080fd5b813567ffffffffffffffff80821115610ffa57600080fd5b818401915084601f83011261100e57600080fd5b81358181111561102057611020610fba565b604051601f8201601f19908116603f0116810190838211818310171561104857611048610fba565b8160405282815287602084870101111561106157600080fd5b826020860160208301376000928101602001929092525095945050505050565b6001600160a01b0381168114610f0d57600080fd5b600080600080608085870312156110ac57600080fd5b84356110b781611081565b935060208501356110c781611081565b93969395505050506040820135916060013590565b6000602082840312156110ee57600080fd5b81356110f981611081565b9392505050565b60008060006060848603121561111557600080fd5b505081359360208301359350604090920135919050565b60008060006060848603121561114157600080fd5b833561114c81611081565b9250602084013561115c81611081565b929592945050506040919091013590565b60006020828403121561117f57600080fd5b5035919050565b60006020828403121561119857600080fd5b81516110f981611081565b600060208083528351808285015260005b818110156111d0578581018301518582016040015282016111b4565b506000604082860101526040601f19601f8301168501019250505092915050565b60008060006060848603121561120657600080fd5b8351925060208401519150604084015190509250925092565b602080825260149082015273151bdad95b9cc81b9bdd081cdd5c1c1bdc9d195960621b604082015260600190565b634e487b7160e01b600052601160045260246000fd5b600181815b8085111561129e5781600019048211156112845761128461124d565b8085161561129157918102915b93841c9390800290611268565b509250929050565b6000826112b55750600161074d565b816112c25750600061074d565b81600181146112d857600281146112e2576112fe565b600191505061074d565b60ff8411156112f3576112f361124d565b50506001821b61074d565b5060208310610133831016604e8410600b8410161715611321575081810a61074d565b61132b8383611263565b806000190482111561133f5761133f61124d565b029392505050565b60006110f983836112a6565b634e487b7160e01b600052601260045260246000fd5b60008261138657634e487b7160e01b600052601260045260246000fd5b500490565b8181038181111561074d5761074d61124d565b808202811582820484141761074d5761074d61124d565b6001600160a01b039384168152919092166020820152604081019190915260600190565b6000602082840312156113eb57600080fd5b815180151581146110f957600080fd5b60006020828403121561140d57600080fd5b5051919050565b8082018082111561074d5761074d61124d56fea26469706673582212202cb8967a19cd490f7386cd303bb9518f3dd6a35f1ffb9765464dedb61d6e0c3b64736f6c63430008110033",
  "devdoc": {
    "details": "A multi-token decentralized exchange (DEX) contract.",
    "kind": "dev",
    "methods": {
      "owner()": {
        "details": "Returns the address of the current owner."
      },
      "renounceOwnership()": {
        "details": "Leaves the contract without owner. It will not be possible to call `onlyOwner` functions anymore. Can only be called by the current owner. NOTE: Renouncing ownership will leave the contract without an owner, thereby removing any functionality that is only available to the owner."
      },
      "transferOwnership(address)": {
        "details": "Transfers ownership of the contract to a new account (`newOwner`). Can only be called by the current owner."
      }
    },
    "title": "MultiDEX",
    "version": 1
  },
  "userdoc": {
    "kind": "user",
    "methods": {},
    "version": 1
  },
  "storageLayout": {
    "storage": [
      {
        "astId": 1585,
        "contract": "contracts/MultiDEX.sol:MultiDEX",
        "label": "_owner",
        "offset": 0,
        "slot": "0",
        "type": "t_address"
      },
      {
        "astId": 1812,
        "contract": "contracts/MultiDEX.sol:MultiDEX",
        "label": "tokenInfoMap",
        "offset": 0,
        "slot": "1",
        "type": "t_mapping(t_address,t_struct(TokenInfo)1804_storage)"
      },
      {
        "astId": 1815,
        "contract": "contracts/MultiDEX.sol:MultiDEX",
        "label": "supportedTokens",
        "offset": 0,
        "slot": "2",
        "type": "t_array(t_address)dyn_storage"
      }
    ],
    "types": {
      "t_address": {
        "encoding": "inplace",
        "label": "address",
        "numberOfBytes": "20"
      },
      "t_array(t_address)dyn_storage": {
        "base": "t_address",
        "encoding": "dynamic_array",
        "label": "address[]",
        "numberOfBytes": "32"
      },
      "t_mapping(t_address,t_struct(TokenInfo)1804_storage)": {
        "encoding": "mapping",
        "key": "t_address",
        "label": "mapping(address => struct MultiDEX.TokenInfo)",
        "numberOfBytes": "32",
        "value": "t_struct(TokenInfo)1804_storage"
      },
      "t_struct(TokenInfo)1804_storage": {
        "encoding": "inplace",
        "label": "struct MultiDEX.TokenInfo",
        "members": [
          {
            "astId": 1801,
            "contract": "contracts/MultiDEX.sol:MultiDEX",
            "label": "token",
            "offset": 0,
            "slot": "0",
            "type": "t_address"
          },
          {
            "astId": 1803,
            "contract": "contracts/MultiDEX.sol:MultiDEX",
            "label": "liquidity",
            "offset": 0,
            "slot": "1",
            "type": "t_uint256"
          }
        ],
        "numberOfBytes": "64"
      },
      "t_uint256": {
        "encoding": "inplace",
        "label": "uint256",
        "numberOfBytes": "32"
      }
    }
  }
}