{
  "address": "0x12B5aB083176b6eBaF0F15d85F063bE5a8951479",
  "abi": [
    {
      "inputs": [],
      "stateMutability": "nonpayable",
      "type": "constructor"
    },
    {
      "anonymous": false,
      "inputs": [
        {
          "indexed": true,
          "internalType": "address",
          "name": "previousOwner",
          "type": "address"
        },
        {
          "indexed": true,
          "internalType": "address",
          "name": "newOwner",
          "type": "address"
        }
      ],
      "name": "OwnershipTransferred",
      "type": "event"
    },
    {
      "inputs": [
        {
          "internalType": "address",
          "name": "_tokenA",
          "type": "address"
        },
        {
          "internalType": "address",
          "name": "_tokenB",
          "type": "address"
        },
        {
          "internalType": "uint256",
          "name": "_amountA",
          "type": "uint256"
        },
        {
          "internalType": "uint256",
          "name": "_amountB",
          "type": "uint256"
        }
      ],
      "name": "addLiquidity",
      "outputs": [],
      "stateMutability": "nonpayable",
      "type": "function"
    },
    {
      "inputs": [
        {
          "internalType": "address",
          "name": "_token",
          "type": "address"
        }
      ],
      "name": "addSupportedToken",
      "outputs": [],
      "stateMutability": "nonpayable",
      "type": "function"
    },
    {
      "inputs": [
        {
          "internalType": "address",
          "name": "tokenIn",
          "type": "address"
        },
        {
          "internalType": "address",
          "name": "tokenOut",
          "type": "address"
        },
        {
          "internalType": "uint256",
          "name": "tokensSold",
          "type": "uint256"
        }
      ],
      "name": "calculateTokenAmount",
      "outputs": [
        {
          "internalType": "uint256",
          "name": "",
          "type": "uint256"
        }
      ],
      "stateMutability": "view",
      "type": "function"
    },
    {
      "inputs": [
        {
          "internalType": "uint256",
          "name": "inputAmount",
          "type": "uint256"
        },
        {
          "internalType": "uint256",
          "name": "inputReserve",
          "type": "uint256"
        },
        {
          "internalType": "uint256",
          "name": "outputReserve",
          "type": "uint256"
        }
      ],
      "name": "getAmountOfTokens",
      "outputs": [
        {
          "internalType": "uint256",
          "name": "",
          "type": "uint256"
        }
      ],
      "stateMutability": "pure",
      "type": "function"
    },
    {
      "inputs": [
        {
          "internalType": "address",
          "name": "_token",
          "type": "address"
        }
      ],
      "name": "getTokensInContract",
      "outputs": [
        {
          "internalType": "uint256",
          "name": "",
          "type": "uint256"
        }
      ],
      "stateMutability": "view",
      "type": "function"
    },
    {
      "inputs": [],
      "name": "owner",
      "outputs": [
        {
          "internalType": "address",
          "name": "",
          "type": "address"
        }
      ],
      "stateMutability": "view",
      "type": "function"
    },
    {
      "inputs": [
        {
          "internalType": "address",
          "name": "_tokenA",
          "type": "address"
        },
        {
          "internalType": "address",
          "name": "_tokenB",
          "type": "address"
        },
        {
          "internalType": "uint256",
          "name": "_liquidity",
          "type": "uint256"
        }
      ],
      "name": "removeLiquidity",
      "outputs": [],
      "stateMutability": "nonpayable",
      "type": "function"
    },
    {
      "inputs": [],
      "name": "renounceOwnership",
      "outputs": [],
      "stateMutability": "nonpayable",
      "type": "function"
    },
    {
      "inputs": [
        {
          "internalType": "uint256",
          "name": "",
          "type": "uint256"
        }
      ],
      "name": "supportedTokens",
      "outputs": [
        {
          "internalType": "address",
          "name": "",
          "type": "address"
        }
      ],
      "stateMutability": "view",
      "type": "function"
    },
    {
      "inputs": [
        {
          "internalType": "address",
          "name": "_tokenIn",
          "type": "address"
        },
        {
          "internalType": "address",
          "name": "_tokenOut",
          "type": "address"
        },
        {
          "internalType": "uint256",
          "name": "_tokensSold",
          "type": "uint256"
        }
      ],
      "name": "swapTokenToToken",
      "outputs": [],
      "stateMutability": "nonpayable",
      "type": "function"
    },
    {
      "inputs": [
        {
          "internalType": "address",
          "name": "",
          "type": "address"
        }
      ],
      "name": "tokenInfoMap",
      "outputs": [
        {
          "internalType": "address",
          "name": "token",
          "type": "address"
        },
        {
          "internalType": "uint256",
          "name": "liquidity",
          "type": "uint256"
        }
      ],
      "stateMutability": "view",
      "type": "function"
    },
    {
      "inputs": [
        {
          "internalType": "address",
          "name": "newOwner",
          "type": "address"
        }
      ],
      "name": "transferOwnership",
      "outputs": [],
      "stateMutability": "nonpayable",
      "type": "function"
    }
  ],
  "transactionHash": "0xb4897b23a7772ce45496cb1752908ed75c0f32a71071d1a16af7c6e10443f1ea",
  "args": [],
  "numDeployments": 1,
  "solcInputHash": "c9bdce2f2b0438a7e420a5ce4060fcce",
  "bytecode": "0x608060405234801561001057600080fd5b5061001a3361001f565b61006f565b600080546001600160a01b038381166001600160a01b0319831681178455604051919092169283917f8be0079c531659141344cd1fd0a4f28419497f9722a3daafe3b4186f6b6457e09190a35050565b610f8f8061007e6000396000f3fe608060405234801561001057600080fd5b50600436106100b45760003560e01c80638da5cb5b116100715780638da5cb5b14610174578063bc62b14c14610199578063c6255626146101ac578063cf6c62ea146101bf578063d752fab2146101d2578063f2fde38b146101e557600080fd5b806313712c9f146100b957806369848c2f146100ce5780636d69fcaf146101255780636eb0314f14610138578063715018a6146101595780637386479e14610161575b600080fd5b6100cc6100c7366004610d5c565b6101f8565b005b6101016100dc366004610d98565b600160208190526000918252604090912080549101546001600160a01b039091169082565b604080516001600160a01b0390931683526020830191909152015b60405180910390f35b6100cc610133366004610d98565b610377565b61014b610146366004610d98565b610468565b60405190815260200161011c565b6100cc6104d9565b61014b61016f366004610dba565b6104ed565b6000546001600160a01b03165b6040516001600160a01b03909116815260200161011c565b61014b6101a7366004610d5c565b61056d565b6101816101ba366004610de6565b6105ff565b6100cc6101cd366004610dff565b610629565b6100cc6101e0366004610d5c565b6109cd565b6100cc6101f3366004610d98565b610c1d565b6001600160a01b03838116600090815260016020526040902054161580159061023a57506001600160a01b038281166000908152600160205260409020541615155b61025f5760405162461bcd60e51b815260040161025690610e41565b60405180910390fd5b600061026a84610468565b9050600061027784610468565b905060006102868484846104ed565b6040516323b872dd60e01b81529091506001600160a01b038716906323b872dd906102b990339030908990600401610e6f565b6020604051808303816000875af11580156102d8573d6000803e3d6000fd5b505050506040513d601f19601f820116820180604052508101906102fc9190610e93565b5060405163a9059cbb60e01b8152336004820152602481018290526001600160a01b0386169063a9059cbb906044016020604051808303816000875af115801561034a573d6000803e3d6000fd5b505050506040513d601f19601f8201168201806040525081019061036e9190610e93565b50505050505050565b61037f610c96565b6001600160a01b0381811660009081526001602052604090205416156103e75760405162461bcd60e51b815260206004820152601760248201527f546f6b656e20616c726561647920737570706f727465640000000000000000006044820152606401610256565b6002805460018082019092557f405787fa12a823e0f2b7631cc41b3ba8828b3321ca811111fa75cd3aa3bb5ace0180546001600160a01b03199081166001600160a01b039485169081179092556040805180820182528381526000602080830182815295825286905291909120905181549092169190941617835551910155565b6040516370a0823160e01b81523060048201526000906001600160a01b038316906370a0823190602401602060405180830381865afa1580156104af573d6000803e3d6000fd5b505050506040513d601f19601f820116820180604052508101906104d39190610eb5565b92915050565b6104e1610c96565b6104eb6000610cf0565b565b600080831180156104fe5750600082115b61053d5760405162461bcd60e51b815260206004820152601060248201526f496e76616c696420526573657276657360801b6044820152606401610256565b60006105498386610ee4565b905060006105578686610efb565b90506105638183610f24565b9695505050505050565b6001600160a01b03838116600090815260016020526040812054909116158015906105b157506001600160a01b038381166000908152600160205260409020541615155b6105cd5760405162461bcd60e51b815260040161025690610e41565b60006105d885610468565b905060006105e585610468565b905060006105f48584846104ed565b979650505050505050565b6002818154811061060f57600080fd5b6000918252602090912001546001600160a01b0316905081565b6001600160a01b03848116600090815260016020526040902054161580159061066b57506001600160a01b038381166000908152600160205260409020541615155b6106875760405162461bcd60e51b815260040161025690610e41565b6001600160a01b03808516600090815260016020526040808220928616825281209080806106b489610468565b905060006106c189610468565b905089898315806106d0575082155b156107c8576040516323b872dd60e01b81526001600160a01b038316906323b872dd9061070590339030908f90600401610e6f565b6020604051808303816000875af1158015610724573d6000803e3d6000fd5b505050506040513d601f19601f820116820180604052508101906107489190610e93565b506040516323b872dd60e01b81526001600160a01b038216906323b872dd9061077990339030908e90600401610e6f565b6020604051808303816000875af1158015610798573d6000803e3d6000fd5b505050506040513d601f19601f820116820180604052508101906107bc9190610e93565b5089955088945061098b565b826107d3858b610ee4565b6107dd9190610f24565b8a101580156108005750836107f2848c610ee4565b6107fc9190610f24565b8910155b6108725760405162461bcd60e51b815260206004820152603e60248201527f416d6f756e74206f6620746f6b656e732073656e74206973206c65737320746860448201527f616e20746865206d696e696d756d20746f6b656e7320726571756972656400006064820152608401610256565b6040516323b872dd60e01b81526001600160a01b038316906323b872dd906108a290339030908f90600401610e6f565b6020604051808303816000875af11580156108c1573d6000803e3d6000fd5b505050506040513d601f19601f820116820180604052508101906108e59190610e93565b506040516323b872dd60e01b81526001600160a01b038216906323b872dd9061091690339030908e90600401610e6f565b6020604051808303816000875af1158015610935573d6000803e3d6000fd5b505050506040513d601f19601f820116820180604052508101906109599190610e93565b50838a8960010154028161096f5761096f610f0e565b04955082898860010154028161098757610987610f0e565b0494505b8588600101600082825461099f9190610efb565b92505081905550848760010160008282546109ba9190610efb565b9091555050505050505050505050505050565b60008111610a2b5760405162461bcd60e51b815260206004820152602560248201527f4c69717569646974792073686f756c642062652067726561746572207468616e604482015264207a65726f60d81b6064820152608401610256565b6001600160a01b038381166000908152600160205260409020541615801590610a6d57506001600160a01b038281166000908152600160205260409020541615155b610a895760405162461bcd60e51b815260040161025690610e41565b6001600160a01b03808416600090815260016020819052604080832093861683528220838201549181015490928286610ac18a610468565b610acb9190610ee4565b610ad59190610f24565b905060008287610ae48a610468565b610aee9190610ee4565b610af89190610f24565b905086866001016000828254610b0e9190610f46565b9250508190555086856001016000828254610b299190610f46565b909155505060405163a9059cbb60e01b8152336004820152602481018390526001600160a01b038a169063a9059cbb906044016020604051808303816000875af1158015610b7b573d6000803e3d6000fd5b505050506040513d601f19601f82011682018060405250810190610b9f9190610e93565b5060405163a9059cbb60e01b8152336004820152602481018290526001600160a01b0389169063a9059cbb906044016020604051808303816000875af1158015610bed573d6000803e3d6000fd5b505050506040513d601f19601f82011682018060405250810190610c119190610e93565b50505050505050505050565b610c25610c96565b6001600160a01b038116610c8a5760405162461bcd60e51b815260206004820152602660248201527f4f776e61626c653a206e6577206f776e657220697320746865207a65726f206160448201526564647265737360d01b6064820152608401610256565b610c9381610cf0565b50565b6000546001600160a01b031633146104eb5760405162461bcd60e51b815260206004820181905260248201527f4f776e61626c653a2063616c6c6572206973206e6f7420746865206f776e65726044820152606401610256565b600080546001600160a01b038381166001600160a01b0319831681178455604051919092169283917f8be0079c531659141344cd1fd0a4f28419497f9722a3daafe3b4186f6b6457e09190a35050565b80356001600160a01b0381168114610d5757600080fd5b919050565b600080600060608486031215610d7157600080fd5b610d7a84610d40565b9250610d8860208501610d40565b9150604084013590509250925092565b600060208284031215610daa57600080fd5b610db382610d40565b9392505050565b600080600060608486031215610dcf57600080fd5b505081359360208301359350604090920135919050565b600060208284031215610df857600080fd5b5035919050565b60008060008060808587031215610e1557600080fd5b610e1e85610d40565b9350610e2c60208601610d40565b93969395505050506040820135916060013590565b602080825260149082015273151bdad95b9cc81b9bdd081cdd5c1c1bdc9d195960621b604082015260600190565b6001600160a01b039384168152919092166020820152604081019190915260600190565b600060208284031215610ea557600080fd5b81518015158114610db357600080fd5b600060208284031215610ec757600080fd5b5051919050565b634e487b7160e01b600052601160045260246000fd5b80820281158282048414176104d3576104d3610ece565b808201808211156104d3576104d3610ece565b634e487b7160e01b600052601260045260246000fd5b600082610f4157634e487b7160e01b600052601260045260246000fd5b500490565b818103818111156104d3576104d3610ece56fea2646970667358221220491180a9f2dd2294e0af11a3a3ecd15a0c501c6d9dd02216e78c3c0f627db01a64736f6c63430008110033",
  "devdoc": {
    "details": "A multi-token decentralized exchange (DEX) contract.",
    "kind": "dev",
    "methods": {
      "owner()": {
        "details": "Returns the address of the current owner."
      },
      "renounceOwnership()": {
        "details": "Leaves the contract without owner. It will not be possible to call `onlyOwner` functions anymore. Can only be called by the current owner. NOTE: Renouncing ownership will leave the contract without an owner, thereby removing any functionality that is only available to the owner."
      },
      "transferOwnership(address)": {
        "details": "Transfers ownership of the contract to a new account (`newOwner`). Can only be called by the current owner."
      }
    },
    "title": "MultiDEX",
    "version": 1
  },
  "userdoc": {
    "kind": "user",
    "methods": {},
    "version": 1
  },
  "storageLayout": {
    "storage": [
      {
        "astId": 7,
        "contract": "contracts/MultiDEX.sol:MultiDEX",
        "label": "_owner",
        "offset": 0,
        "slot": "0",
        "type": "t_address"
      },
      {
        "astId": 229,
        "contract": "contracts/MultiDEX.sol:MultiDEX",
        "label": "tokenInfoMap",
        "offset": 0,
        "slot": "1",
        "type": "t_mapping(t_address,t_struct(TokenInfo)224_storage)"
      },
      {
        "astId": 232,
        "contract": "contracts/MultiDEX.sol:MultiDEX",
        "label": "supportedTokens",
        "offset": 0,
        "slot": "2",
        "type": "t_array(t_address)dyn_storage"
      }
    ],
    "types": {
      "t_address": {
        "encoding": "inplace",
        "label": "address",
        "numberOfBytes": "20"
      },
      "t_array(t_address)dyn_storage": {
        "base": "t_address",
        "encoding": "dynamic_array",
        "label": "address[]",
        "numberOfBytes": "32"
      },
      "t_mapping(t_address,t_struct(TokenInfo)224_storage)": {
        "encoding": "mapping",
        "key": "t_address",
        "label": "mapping(address => struct MultiDEX.TokenInfo)",
        "numberOfBytes": "32",
        "value": "t_struct(TokenInfo)224_storage"
      },
      "t_struct(TokenInfo)224_storage": {
        "encoding": "inplace",
        "label": "struct MultiDEX.TokenInfo",
        "members": [
          {
            "astId": 221,
            "contract": "contracts/MultiDEX.sol:MultiDEX",
            "label": "token",
            "offset": 0,
            "slot": "0",
            "type": "t_address"
          },
          {
            "astId": 223,
            "contract": "contracts/MultiDEX.sol:MultiDEX",
            "label": "liquidity",
            "offset": 0,
            "slot": "1",
            "type": "t_uint256"
          }
        ],
        "numberOfBytes": "64"
      },
      "t_uint256": {
        "encoding": "inplace",
        "label": "uint256",
        "numberOfBytes": "32"
      }
    }
  }
}